:020000040800F2
:10000000482B00209D0100082F32000871290008AC
:100010002D3200086D090008B53E00080000000000
:10002000000000000000000000000000093B000884
:100030005D0A000800000000313200080D3B000896
:10004000B7010008B7010008B7010008B7010008B0
:10005000B7010008B7010008B7010008B7010008A0
:10006000B7010008B7010008B7010008B701000890
:10007000B7010008B7010008B7010008B701000880
:10008000B7010008B701000839080008B7010008E7
:10009000B7010008B7010008B7010008B701000860
:1000A000B7010008B7010008B7010008B701000850
:1000B000B7010008B7010008B7010008B701000840
:1000C000B7010008B7010008B7010008B701000830
:1000D000B7010008B7010008B7010008B701000820
:1000E000B7010008B7010008B7010008B701000810
:1000F000B7010008B7010008B7010008B701000800
:10010000B7010008B7010008B7010008B7010008EF
:10011000B7010008B7010008093C0008B701000852
:10012000AD090008B7010008B7010008B7010008D1
:10013000B7010008B7010008B7010008B7010008BF
:10014000B7010008B7010008B7010008B7010008AF
:10015000B7010008B7010008B7010008B70100089F
:10016000B7010008B7010008B7010008B70100088F
:10017000B7010008B7010008B7010008000000003F
:10018000B7010008B7010008DFF80CD000F0E8FA6A
:100190000048004745600008482B0020064880477B
:1001A00006480047FEE7FEE7FEE7FEE7FEE7FEE75C
:1001B000FEE7FEE7FEE7FEE7ED3B000889010008E9
:1001C0002DE9F05F0546002092469B46884606468C
:1001D000814640241BE0284641464746224600F01F
:1001E0000BF953465A46C01A914110D3114618468E
:1001F000224600F0F2F82D1A67EB01084F4622461E
:100200000120002100F0E9F817EB00094E41201E03
:10021000A4F10104DFDC484631462A464346BDE8E6
:10022000F09FD2B201E000F8012B491EFBD27047CB
:100230000022F6E710B513460A4604461946FFF7B2
:10024000F0FF204610BD421E12F8013F002BFBD1EB
:1002500011F8013B02F8013B002BF9D17047421C19
:1002600010F8011B0029FBD1801A7047034611F8D2
:10027000012B00F8012B002AF9D1184670472DE90F
:10028000FE4F81EA030404F0004421F00041009491
:100290004FF0000B23F0004350EA01045ED052EA15
:1002A00003045BD0C3F30A54C1F30A552C44A4F2EF
:1002B000F3340194A0FB0254C1F3130141F4801103
:1002C000C3F3130343F4801301FB024400FB034E0A
:1002D000840A970A44EA815447EA8357A4FB0768D3
:1002E00002958D0A05FB07854FEA932C04FB0C54FD
:1002F0002705029D4FEA065847EA1637B5EB080571
:100300006EEB070C870E920E47EA811742EA8312C2
:10031000A7FB0201B6EB0B0164EB00042B0D43EAD3
:100320000C335E1844EB1C50DA465146E7FB0201E1
:10033000C5F313044FEA0B3343EA14534FEA043274
:10034000019C43EA0603A4F10C040294009CCDE94D
:1003500000B400F070F803B0BDE8F08F0020014653
:10036000F9E70EB540F2334102910021CDE90011C9
:100370000A460B4600F05FF803B000BDC1F30A5215
:1003800010B5C1F3130140F2FF3341F480119A42DA
:1003900001DA002010BD40F233439A42A2F2334208
:1003A00003DC524200F028F810BD904010BD30B57B
:1003B0000B46014600202022012409E021FA02F523
:1003C0009D4205D303FA02F5491B04FA02F52844BD
:1003D000151EA2F10102F1DC30BD202A04DB203A17
:1003E00000FA02F1002070479140C2F1200320FA88
:1003F00003F3194390407047202A04DB203A21FA86
:1004000002F00021704721FA02F3D040C2F120022D
:10041000914008431946704710B5141E73F100044B
:1004200008DA401C41F1000192185B411A4301D1E6
:1004300020F0010010BD2DE9F04D92469B4611B110
:10044000B1FA81F202E0B0FA80F220329046FFF772
:10045000C4FF04460F4640EA0A0041EA0B01534636
:100460005A46084313D0114653EA010019D0C8F187
:1004700040025046FFF7C0FF05460E46504659461B
:100480004246FFF7AAFF084305D0012004E02046BA
:100490003946BDE8F08D0020054346EAE0762C435E
:1004A00037430A986305E40AA0EB08000022FD0A1E
:1004B00044EA47540A3002D500200146E9E7010525
:1004C00010196941DDE9084500196941BDE8F04DA1
:1004D000A2E72DE9FE4F804681EA0300C00F0C46DB
:1004E000009021F0004123F00045B8EB0200A94143
:1004F00005D24046214690461C460B46024623F054
:100500000040104347D0270DC7F30A00C3F30A5138
:100510000290401A019040286BDAC3F3130040F4B4
:10052000801B0098924620B10023D2EB030A63EBB4
:100530000B0B01985946C0F140025046FFF74DFFA2
:1005400006460D4650465946019A00F01BF910EB3D
:1005500008006141002487EA115284EAE7731A43D4
:1005600040D0009A62B3019A012A4FEA075215DC83
:10057000001B61EB02014FF0004202EA0752CDE995
:100580000042001C41F5801132462B46FFF753FF15
:1005900003B0BDE8F08F40462146F9E7001B61EB50
:1005A0000201001C41F5801300185B412018A2F5E0
:1005B000001747EB030140EAD570B6196D4111E011
:1005C0006D084FEA360645EAC0754FEA0752001B30
:1005D00061EB0201001C41F5801149084FEA30002F
:1005E0000019514132462B4603B0BDE8F04FFFF7EA
:1005F00013BF0098012240000023D0EB020263EBFE
:10060000E073009821464FEAE074B8EB000061EB1C
:100610000401E9E783F000435BE781F0004158E71C
:100620002DE9F04D81EA030404F0004B21F0004570
:1006300014464FF0000A23F0004150EA050220D092
:1006400054EA01021DD0C5F30A570246C5F313034D
:10065000C1F31300C1F30A5640F4801543F480132C
:10066000A7EB0608101BD64608F2FD3873EB050011
:1006700002D308F1010801E092185B41B8F1000FC4
:1006800003DA00200146BDE8F08D00204FF4801110
:10069000064684460EE0171B73EB050705D3121BB5
:1006A00063EB050306434CEA010C49084FEA3000AE
:1006B00092185B4150EA0107EDD152EA030012D0D3
:1006C00082EA040083EA0501084305D0101BAB4110
:1006D00006D20122002306E000224FF0004302E090
:1006E0006FF0010253101AEB06004CEB085110EBAF
:1006F0000A0041EB0B01BDE8F04DFFF78DBEC1F3E1
:100700000A52C1F3130140F2FF3341F480119A42BF
:1007100002DA00200146704740F233439A42A2F2C7
:10072000334202DC5242FFF767BEFFF756BE0000BD
:1007300030B5041E71F1000404DB4FF00044404268
:1007400064EB0101141E73F1000405DB1C464FF03D
:100750000043524263EB0403994208BF904230BD0C
:10076000064C074D06E0E06840F0010394E80700FE
:1007700098471034AC42F6D3FFF70AFD0871000821
:1007800028710008202A06DBCB17203A41FA02F034
:1007900043EAE07306E041FA02F3D040C2F12002DE
:1007A000914008431946704710B50146806B026CB2
:1007B00012F0500F05D0026CD20626D500F03AFA9E
:1007C00010BD016C41F40071016401688A6812F087
:1007D000405F17D1027EAAB9CA6A12F4700F02D024
:1007E0008A6852050ED44A6822F020024A60016CE1
:1007F00021F480710164016CC90403D4016C41F0DF
:100800000101016400F014FA10BD806BC26CBDE8F8
:1008100010400846104710B5806B40210164416CC0
:1008200041F00401416400F005FA10BD10B5806B81
:1008300000F0FFF910BD0000014800F0FCB9000015
:1008400050220020464910B54A6822F440324A60DE
:100850004A6843681A434A6001684A6822F4807211
:100860004A6001684A68036942EA03224A600168F3
:100870004A6822F040724A6001684A6883681A43F5
:100880004A6001688A6822F400628A6001688A68A6
:10089000C3681A438A60816A6FF07062D14201684E
:1008A0008A6822F070628A6001688A680CD0836A64
:1008B0001A438A6001688A6822F040528A6001689F
:1008C0008A68C36A1A4301E022F040528A600168D4
:1008D0008A6822F002028A6001688A68037E42EA1E
:1008E00043028A6090F82010002901684A680FD0FE
:1008F00042F400624A6001684A6822F460424A6039
:1009000001684A68174C436A04EB43331A4301E019
:1009100022F400624A600168CA6A22F47002CA6264
:100920000168CA6A838B104C04EB03531A43CA62F2
:1009300001688A6822F400728A6001688A6890F807
:10094000303042EA43228A6001688A6822F4806279
:100950008A6001688A68406942EA8020886010BD28
:100960000023014000E0FFFF0000F0FFFEE7000071
:1009700010B501221021044800F077FDBDE81040B9
:10098000012000F07FBC00000000024010B500F024
:100990008BF801224021044800F067FDBDE81040BB
:1009A0004FF47A7000F06EBC00040240014800F081
:1009B000F7BA00007C24002001681823CAB2103A5C
:1009C000B2FBF3F2054B6FF30901032A9B5CC3658D
:1009D00000D9091D8165084670470000906C000829
:1009E00010B5014600208B698A6A4FF0C07453B17C
:1009F000B3F5005F15D072B1012A0CD0022A0AD0DB
:100A0000032A09D104E01AB1012A06D0022A03D12F
:100A1000C96AC90100D5012010BDC96AA142FAD036
:100A200010BD002AF7D0012AF2D0022AF3D0032AFF
:100A3000F3D010BD30B50468256825F48025256005
:100A4000046863608368402B036803D09960006882
:100A5000C26030BD9A600068C16030BD704772B638
:100A6000FEE70022AFF3008030B50E4B05460120B3
:100A70005C7A002C14D1587A1C54587A03EB80000D
:100A800045605D7A03F108002A54587A421C5A7274
:100A9000303008703A2048702F208870CC700020C9
:100AA00030BD00003C2700200B4800B5016887B02E
:100AB00041F0020101600068694600F00200059003
:100AC000402000900120019003200390034800F093
:100AD000EBFB07B000BD00003038024000040240CC
:100AE0007047000078B50024009490F83C20012A5B
:100AF00019D0012280F83C200A6807230568092ADA
:100B000013D9EE680A3A02EB420293409E43EE602C
:100B10000B788A680A3B03EB43039A400368DD685D
:100B20002A43DA6010E0022078BD2E6902EB42020F
:100B300093409E432E610B788A6803EB43039A40EF
:100B400003681D692A431A614A681F23072A13D2C2
:100B500005686E6B521E02EB820293409E436E63E9
:100B60000B790A885B1E92B203EB83039A400368F9
:100B70005D6B2A435A6327E005680D2A12D22E6B5B
:100B8000D21F02EB820293409E432E630B790A88A8
:100B9000DB1F92B203EB83039A4003681D6B2A4369
:100BA0001A6311E0EE6A0D3A02EB820293409E4313
:100BB000EE620B790A880D3B92B203EB83039A40F5
:100BC0000368DD6A2A43DA62164B0568144A9D42BF
:100BD00006D10D68122D03D1556845F48005556086
:100BE00005689D4218D10B68102B01D0112B13D131
:100BF000536843F400035360096810290CD10A4973
:100C00000A4A0968B1FBF2F101EB8101490000E0F9
:100C1000491E00910029FBD180F83C40002078BD9E
:100C200000230140002001409000002040420F00BE
:100C300070477047704770B50446006801684268A5
:100C4000C1F34001C2F3401251B34AB3216CC9064B
:100C500003D4216C41F400712164816811F0405F7C
:100C600017D1217EA9B9C16A11F4700F02D0816831
:100C700049050ED4416821F020014160206C20F428
:100C800080702064206CC00403D4206C40F001000C
:100C900020642046FFF7CCFF21686FF01200086047
:100CA000206801684268C1F38001C2F3C01289B3B1
:100CB00082B3216CC90603D4216C41F40051216434
:100CC000816811F4401F1ED1816B11F4401F02D0C6
:100CD0008168490517D44168490514D4816811F029
:100CE000405F10D1217E71B9416821F080014160DF
:100CF000206C20F480502064206CC00503D4206C4C
:100D000040F0010020642046FFF7EAFE21686FF002
:100D10000C00086020680168426811F0010FC2F3FE
:100D200080120ED06AB10068C0070AD0206C40F46F
:100D300080302064204600F046F821686FF0010002
:100D40000860206801684268C1F34011C2F3806204
:100D500000290DD0002A0BD0616C41F002016164C2
:100D60006FF0200505602046FFF764FF20680560EE
:100D700070BD70B504004FF0000503D0206C002654
:100D800010B107E0012070BD204600F01DF8666438
:100D900084F83C60206CC00610D4206C20F488508D
:100DA00040F0020020642046FFF74CFD6664206C92
:100DB00020F0020040F00100206400E0012584F8EA
:100DC0003C60284670BD704770B586B00646142159
:100DD0006846FFF72DFA2149306888423BD1204808
:100DE0000025016841F480710160006800F48070A2
:100DF00005901B481438016841F00101016000684A
:100E0000694600F00100059003200090CDE901053E
:100E1000144800F049FA154C1348C4E900050015C0
:100E2000A560C4E90350400060618000A0614011EA
:100E3000C4E907052046656200F082F908B1FFF7B2
:100E40000EFEB463002211461220A66300F09AFB46
:100E5000122000F089FB06B070BD000000200140A8
:100E60004438024000000240106402407C2400200C
:100E7000F8B50E4600210446009190F83C00012888
:100E800007D0012084F83C0020688368DB0702D08B
:100E900011E00220F8BD836843F001038360374806
:100EA000374B0068B0FBF3F000EB400000E0401E61
:100EB00000900028FBD120688368DB075CD0236C9E
:100EC00040F20165AB4343F48073236440684005FE
:100ED00005D5206C20F4005040F480502064206C34
:100EE000C00404D5606C20F00600606400E061641A
:100EF00084F83C10A16B2448224DC863A16B2348A1
:100F00000864A16B2248C86421686FF02200086061
:100F10002068416841F0806141602068816841F447
:100F2000807181602168134632464C31A06B00F01D
:100F300071F968681749C006206806D088421BD13D
:100F4000816811F0405F13D016E08842F8D0124A51
:100F5000904203D1D1F80423D206F1D00F4A904237
:100F60000AD1D1F8041301F01F011029E8D303E0DE
:100F7000816841F0804181600020F8BD9000002030
:100F800040420F0000230140A90700082D08000877
:100F90001708000800200140002101400022014004
:100FA0002DE9F84304464FF00009CDF8009063485E
:100FB0004FF41651A56D0068B0FBF1F72E6894F858
:100FC0005C10082000FA01F131420FD021680A6854
:100FD00052070BD50A6822F004020A6094F85C10EC
:100FE0008840A860606D40F00100606594F85C1076
:100FF0004FF0010808FA01F0304208D02168496931
:10100000090604D5A860606D40F00200606594F8A0
:101010005C1004208840304208D0216809688907A4
:1010200004D5A860606D40F00400606594F85C1021
:1010300010208840304218D021680968090714D56B
:10104000A86020680168490304D50068000308D53A
:10105000A16C07E00168C90503D4016821F008010B
:101060000160216C09B12046884794F85C1020206B
:101070008840304231D021680968C9062DD5A86062
:1010800094F8350005282068016806D0490347D543
:10109000006800031DD4616C1CE021F016010160A2
:1010A0002068416921F080014161206C08B9A06C81
:1010B00020B12068016821F00801016094F85C10FB
:1010C0003F208840A86084F8349084F83580216DF2
:1010D0001FE0E16B09B120468847606D00282BD0E6
:1010E000606DC00714D0052084F8350020680168C1
:1010F00021F0010101600098401C0090B84203D823
:1011000020680068C007F6D184F8349084F83580F0
:10111000E16C002910D001B02046BDE8F04308473B
:101120000168C905D5D4016821F01001016084F877
:10113000349084F83580CCE7BDE8F8839000002037
:101140002DE9F041044600F095F906465CB1002512
:1011500084F83450022084F835002068016821F0BA
:10116000010101600DE00120BDE8F08100F082F98D
:10117000801B052805D920206065032084F83500F0
:10118000F2E720680068C007F0D1226811682048A3
:101190000140D4E901031843D4E90336334318432B
:1011A00063691843A3691843E3691843236A184322
:1011B0000843616A042903D1D4E90B131943084396
:1011C000106020684069666A20F0070130460E43CF
:1011D000012704280CD1A06A0643E06A40B12046EA
:1011E000FFF7FEFB20B14020606584F83570BAE758
:1011F000206846612046FFF7DFFB94F85C203F2122
:1012000091408160656584F835700020ACE700008E
:101210003F8010F02DE9F0410446866D90F83400CF
:10122000002501280DD0012084F8340094F8357091
:101230000020012F07D084F8340002252846BDE89D
:10124000F0810220FBE7022784F8357060652046B4
:10125000FFF7F0FB94F85C103F208840B0602068F6
:10126000016841F016010160206C20B1206801681E
:1012700041F0080101602068016841F0010101604E
:10128000DCE7000070B5044600F0F4F80546601C89
:1012900002D004480078044400F0ECF8401BA0425F
:1012A000FAD370BD840000202DE9F84F00224FF0E2
:1012B000010803254FF00F0E0B6808FA02F42340D3
:1012C000A3426ED14E68012E05D0022E03D0112EFE
:1012D00001D0122E12D186684FEA420C05FA0CF7A3
:1012E000BE43CF6807FA0CF7374387604668A643CA
:1012F0000C79C4F30014944034434460C66857002A
:1013000005FA07FC8C6826EA0C06BC403443C4602E
:101310004C68022C01D0122C13D1D40800EB8404A9
:10132000A346D4F8209054074FEAD46A0EFA0AF67E
:1013300029EA06090E6906FA0AF646EA0906CBF812
:10134000206006680C7926EA0C0604F00304BC4011
:10135000344304604C68E40065D5364C266846F496
:1013600080462660246822F0030604F4804400943A
:10137000314C3444A446D4F808489607370F0EFA87
:1013800007F6B4432D4EB04201D1002624E02C4E86
:10139000B04201D101261FE02A4EB04202D10226FE
:1013A0001AE040E0284EB04201D1032614E0274E57
:1013B000B04201D104260FE0254EB04201D10526EE
:1013C0000AE0244EB04201D1062605E0224EB0428A
:1013D00001D1072600E00826BE402643CCF8086865
:1013E0001E4E34684F689C43FF0300D51C43346095
:1013F0001A4C241D26684F689E43BF0300D51E4328
:101400002660164E083634684F689C43FF0200D5AC
:101410001C433460114E0C3634684F689C43BF0245
:1014200000D51C433460521C102AFFF445AFBDE8C0
:10143000F88F0000443802400030014000000240B4
:101440000004024000080240000C0240001002406C
:101450000014024000180240001C0240003C014001
:101460000069084000D0012070470AB181617047CF
:101470000904FBE7014880687047000084000020F1
:10148000024881680278114481607047840000201E
:101490000B4810B5016841F400710160016841F426
:1014A00080610160016841F480710160032000F0F7
:1014B00089F8002000F006F800F03EF8002010BD8A
:1014C000003C024010B5014688B00022362000F0F2
:1014D00059F8362000F048F813480024016841F01C
:1014E00010010160006805A900F010000690684630
:1014F00000F0B2F900F0D0F90C494000B0FBF1F176
:101500000C480B4A491E026040F2E732C0E903244E
:10151000C0E9011400F0B2FF10B1012008B010BD05
:10152000044800F0C7FFF9E74038024040420F008E
:1015300000100040DC2400200A4808B5016841F48E
:1015400080410160006800F4804000900548001F61
:10155000016841F080510160006800F08050009007
:1015600008BD000044380240002809DB00F01F02DB
:10157000012191404009800000F1E020C0F80011F5
:1015800070470000F0B40E4B1B680C46C3F30223F7
:10159000C3F10705042D00D90425191D072901D21F
:1015A000002300E0DB1E012606FA05F1491E21405A
:1015B00099409E40761E16403143F0BC02F090BC2C
:1015C0000CED00E0064900F0070208684FF6FF0343
:1015D000184040EA0220034A1043086070470000A8
:1015E0000CED00E00000FA052DE9F843054600681F
:1015F0004FF00109C1074FF0000601D1400727D580
:10160000DFF80C81C8F86860FFF734FF0746414CEB
:1016100005E000BFFFF72EFFC01B022857D8206847
:101620000001F7D468688101287A41EA00703949DD
:1016300084310860C8F86890FFF71CFF074604E093
:10164000FFF718FFC01B022841D820680001F7D51A
:101650002878800752D52F484030016841F08051EA
:10166000016000682C4C00F080500090206840F42D
:1016700080702060FFF7FEFE074604E0FFF7FAFEE9
:10168000C01B022823D82068C005F7D5214C703430
:10169000206810F4407020D0A98901F44071814283
:1016A0001BD020681D4920F44070C1F800900E60E6
:1016B00020602068C00710D0FFF7DCFE064641F22C
:1016C000883707E0FFF7D6FE801BB84202D9032017
:1016D000BDE8F88320688007F4D5E9680D48C1F3B8
:1016E00001220830032A0BD0016821F4F8110160AF
:1016F0002068A989C1F30B01084320600020E7E7B7
:101700000268074B22F4F81219400A430260EFE71F
:10171000000047420038024000700040400E47423F
:10172000FFFCFF0F2DE9F0470E46050065D0DFF8FE
:101730001481D8F80000F7B200F00F00B04207D2D1
:1017400088F80070D8F8000000F00F00B04254D1C3
:1017500028683D4C810712D5400703D5206840F426
:10176000E05020602878000703D5206840F46040EE
:1017700020602068A96820F0F000084320602878E5
:10178000C0072DD0304968680839012812D00228D6
:1017900013D0032811D00968890700292DDA2168A0
:1017A00021F0030101432160FFF764FE814641F20D
:1017B000883A0EE009688903EFE709688901ECE7D8
:1017C000FFF758FEA0EB0901514502D90320BDE8FF
:1017D000F0872068696800F00C00B0EB810FEFD152
:1017E000D8F80010404601F00F01B14207D9077048
:1017F000006800F00F00B04201D00120E7E7287830
:10180000400705D52068E96820F4E05008432060CF
:101810002878000706D52068296920F4604040EA4E
:10182000C100206000F058F82168084AC1F3031194
:10183000515CC8400649086006480068FFF742FE50
:101840000020C4E7003C024008380240986C0008C1
:1018500090000020880000200F2202600C4A1368CC
:1018600003F003034360136803F0F003836013681D
:1018700003F4E053C36012684FF4E05303EAD2026A
:1018800002610448006800F00F0008607047000023
:1018900008380240003C02400448054900680968D5
:1018A000044AC1F38221515CC84070479000002077
:1018B00008380240A86C0008044805490068096817
:1018C000044AC1F34231515CC84070479000002087
:1018D00008380240A86C0008154810B5006810F0E0
:1018E0000C02144813D04110042A0FD0082A0ED13C
:1018F0000F4C241F2268236802F03F025B0207D5C9
:101900002068C0F38810A0FB010106E0084610BD66
:101910002168C1F38811A1FB00010023FEF750FCF0
:101920002168C1F30141491C4900B0FBF1F010BD31
:10193000083802400024F4002DE9F84F04006ED06E
:101940002078DFF83C93C007A9F104054AD009F1DB
:1019500004000168C1F38101012908D00068C0F3C7
:10196000810002280AD1D9F80000400206D5286873
:10197000800337D560680028E1D033E06068B0F5B7
:10198000803F10D0B0F5A02F286810D020F4803010
:101990002860286820F4802028606068A8B1FFF7DC
:1019A00069FD06460DE0286840F48030F4E740F415
:1019B00080202860F7E700BFFFF75CFD801B6428EC
:1019C00073D828688003F7D50CE0FFF753FD06466F
:1019D00005E000BFFFF74EFD801B6428F0D82868A3
:1019E0008003F7D42078DFF89C8280074FF0000A4C
:1019F0003ED5A348001D016811F00C0F08D0006807
:101A0000C0F3810002280BD1D9F80000400207D4AE
:101A10002868800716D5E068012800D112E02BE184
:101A2000E068B8B10120C8F80000FFF723FD0646C2
:101A300005E000BFFFF71EFD801B0228C0D8286804
:101A40008007F7D52868216920F0F80040EAC10036
:101A500028600DE0C8F800A0FFF70CFD064604E082
:101A6000FFF708FD801B02281FD828688007F7D4DD
:101A70002078000722D5824E83486169703671B1A3
:101A800001210160FFF7F6FC074604E0FFF7F2FCD6
:101A9000C01B022809D830688007F7D50EE0C0F8CF
:101AA00000A0FFF7E7FC074605E082E0FFF7E2FC55
:101AB000C01B02287DD830688007F7D42078400703
:101AC00068D5DFF8BCB100270BF13C0BDBF8000058
:101AD000C0000BD4DBF8001041F08051CBF80010AF
:101AE000DBF80000012700F080500090674E30685E
:101AF000C00510D4306840F480703060FFF7BAFC45
:101B0000009005E0FFF7B6FC0099401A022850D873
:101B10003068C005F6D55A4EA0686C3601280FD043
:101B20000528306810D020F001003060306820F0C7
:101B300004003060A068B8B1FFF79CFC00900FE093
:101B4000306840F00100F4E740F004003060F7E74F
:101B5000FFF790FC0099411A41F28830814266D823
:101B600030688007F4D50EE0FFF784FC009007E0B2
:101B7000FFF780FC0099411A41F28830814256D823
:101B800030688007F4D42FB1DBF8001021F08051C9
:101B9000CBF80010A069C8B33949091D0968C1F321
:101BA000810102294AD00228504607D0C8F86000B7
:101BB00000E03CE0FFF75EFC04463BE04746C8F827
:101BC0006000FFF757FC064605E000BFFFF752FC38
:101BD000801B02282BD828688001F7D4D4E907019C
:101BE0000843A16A2A4A490802EB0141626A41EAB4
:101BF0008211084394F82C1040EA0161C9F80010E2
:101C000001203866FFF736FC044606E036E000BFE8
:101C1000FFF730FC001B022809D828688001F7D59F
:101C20002CE000BFFFF726FC001B022802D903208E
:101C3000BDE8F88F28688001F4D41FE00128F7D0B0
:101C4000D9F80000E26900F48001914214D1226ABF
:101C500000F03F0191420FD147F6C071626A014026
:101C6000914209D1A26A00F44031914204D1E16A63
:101C700000F07060884201D00120D9E70020D7E74A
:101C80000438024000004742800E47420070004086
:101C90000000FFFF10B500680B4641680D48014089
:101CA000080CD870C1F304245C7001F03F049C70F0
:101CB000C1F34231197052B901F0ECFAD87058787A
:101CC00001F0E8FA5870987801F0E4FA9870002072
:101CD00010BD00003FFFFF0010B50B460168896A88
:101CE000596001680969C1F30E01996000680168D3
:101CF0000E480140C1F305401870C1F306245C7022
:101D000001F07F049C70402404EA1141D97052B95B
:101D100001F0C0FA1870587801F0BCFA5870987841
:101D200001F0B8FA9870002010BD00007F7F7F009E
:101D300070B5040002D0607F10B106E0012070BDD4
:101D400000202077204600F049F8022060772168C3
:101D5000CA204862216853204862204601F0AEFA4A
:101D6000FF25042618BB206881681B4A114081604A
:101D70002168886862681043D4E904231A43104339
:101D800088602168E068086120680169228941EA69
:101D9000024101612068C16821F08001C1602068B2
:101DA0008068800607D4204600F0FEF818B120684D
:101DB00045626677C2E72068016C21F480210164E6
:101DC0002068016CA269114301642068456201200A
:101DD0006077002070BD0000BFFF8FFF00680349DF
:101DE000884202D102490120086070470028004063
:101DF0003C0E47422DE9F0470446007F0B46012880
:101E00001FD04FF0010984F81C9002206077DAB1EE
:101E10009878D97840EA014558781978000240EA64
:101E2000413005432168CA20486221685320486236
:101E3000204601F043FA0026FF274FF0040860BB5C
:101E40001AE00220BDE8F0875878C10603D500F0FB
:101E5000EF000A305870D87801F025FA020458785B
:101E600001F021FA42EA0022987801F01CFA0243BC
:101E7000187842EA4035D5E70F48054020684560AC
:101E80002068C16821F08001C160206880688006F8
:101E90000AD4204600F088F830B12068476284F800
:101EA0001D8026770120CDE72068476284F81D90C9
:101EB00026770020C6E700003FFFFF002DE9F0472E
:101EC0000446007F0D46012827D04FF0010A84F810
:101ED0001CA0022060772068002680684FEA4060DE
:101EE000F2B1002800DBEE70A878297840EA0147BB
:101EF0006878E978000240EA014007432168CA2077
:101F00004862216853204862204601F0D7F94FF01B
:101F1000FF084FF00409A0BB16E00220BDE8F087DF
:101F2000002800DBEE70287801F0BDF90204687823
:101F300001F0B9F942EA0022A87801F0B4F90243AD
:101F4000E87842EA0047D9E716480740206807606A
:101F50002068816821F480218160D5E9030108436C
:101F600021688A68104388602068C16821F0800178
:101F7000C1602068806880060BD4204600F014F809
:101F800038B12168C1F8248084F81D90267701209B
:101F9000C4E72168C1F8248084F81DA026770020BA
:101FA000BCE700007F7F7F0070B504460068C16811
:101FB00021F0A001C160FFF75DFA05464FF47A7683
:101FC00007E000BFFFF756FA401BB04201D90320DB
:101FD00070BD2068C0688006F4D5002070BD70B563
:101FE000040005D00025A56294F8510010B106E068
:101FF000012070BD84F85050204600F031F80220D6
:1020000084F851002068016821F040010160D4E9A2
:1020100001010843D4E903121143084361690843ED
:10202000218B01F400710843E1690843216A0843E8
:10203000A16A084321680860A069042101EA1040F0
:10204000616A0843216848602068C16921F4006121
:10205000C1616565012084F85100002070BD000059
:10206000F0B587B0044614216846FEF7E1F82A4A25
:10207000216800242948022503260527914217D10B
:10208000264914310A6842F480520A60096801F452
:1020900080510591016841F00101016000686946C5
:1020A00000F001000590E020CDE900051C482CE07F
:1020B0001C4A91422ED1194910310A6842F48042DB
:1020C0000A60096801F480410591016841F004014A
:1020D0000160016801F004010591016841F002010D
:1020E0000160006802AA00F0020005900C20CDE912
:1020F000000582E8D00069460B48FFF7D5F84FF499
:102100000050CDE900050948694602AA82E8D000DE
:10211000FFF7CAF807B0F0BD003001403038024088
:102120000000024000380040000802400004024065
:102130002DE9F84F044690F8500000271D4616463A
:10214000894601280DD04FF0010B84F850B0FFF7FD
:1021500091F9804694F85100BA46012804D002272C
:102160008EE00220BDE8F88FB9F1000F7DD0002E7F
:102170007BD0032084F85100C4F854A0C4F83090F8
:10218000A686E686C4F838A0A4F83CA0A4F83EA031
:10219000C4F844A0C4F840A0A068B0F5004F04D132
:1021A0002068016841F480410160206801684906A7
:1021B00003D4016841F040010160E068B0F5006FB0
:1021C000606803D030B3012E24D040E008B1012E66
:1021D0001CD1206B21680088C86006E020688168F7
:1021E000890709D5216B0988C160206B801C206399
:1021F000E08E401EE08609E0FFF73CF9A0EB080006
:10220000A84202D3681C01D031E07DB3E08E0028E3
:10221000E4D11FE0206B21680078087306E0206895
:102220008168890709D5216B09780173206B401CEF
:102230002063E08E401EE08609E0FFF71BF9A0EB6B
:102240000800A84202D3681C01D010E075B1E08EEE
:102250000028E4D142462946204601F0ABFB08B1F4
:1022600020206065A06820B107E008E0FFE70327B1
:1022700006E02068C16880680090606D00B10127A9
:1022800084F851B084F850A038466BE72DE9F84F38
:10229000044690F8500000270A9E1D4692468B4641
:1022A0004FF0010901280ED0012084F85000FFF7FB
:1022B000E1F8804694F85100616801280CD0B1F52E
:1022C000827F07D102E00220BDE8F88FA16809B93A
:1022D000042801D00227C2E0BBF1000F27D0BAF1D9
:1022E000000F24D01DB394F85100042802D005201B
:1022F00084F8510000206065C4F838A0E587A58700
:10230000C4F830B0E586A586206460642068016862
:10231000490603D4016841F040010160E068B0F56E
:10232000006F606805D0E8B3012D46D07FE001273B
:1023300095E008B1012D39D1206B21680088C86073
:10234000206B801C2063E08E401EE0862EE020681B
:10235000816889070FD5E18E69B1B9F1010F0AD102
:10236000216B0988C160206B801C2063E08E401EB9
:10237000E0864FF0000920688168C9070CD0E18F22
:1023800051B1C068A16B0880A06B801CA063E08F76
:10239000401EE0874FF00109FFF76CF8A0EB080042
:1023A000B04200E009E001D3701C50D1E08E00285B
:1023B000CDD1E08F0028CAD13FE0206B21680078A2
:1023C0000873206B401C2063E08E401EE0862EE0E8
:1023D0002068816889070FD5E18E69B1B9F1010FD5
:1023E0000AD1216B09780173206B401C2063E08EB9
:1023F000401EE0864FF0000920688168C9070CD0B4
:10240000E18F51B1C068A16B0870A06B401CA06344
:10241000E08F401EE0874FF00109FFF72BF8A0EB9B
:102420000800B04202D3701C01D010E07EB1E08EF3
:102430000028CDD1E08F0028CAD14246314620463F
:1024400001F0B8FA28B101272020606507E00327D2
:1024500005E0A06818B92068C16880680090012074
:1024600084F85100002084F8500038462CE770476B
:1024700010B5FFF7FCFF10BD7047704710B50400A2
:1024800003D094F83D0010B107E0012010BD0020FA
:1024900084F83C00204600F00CF8022084F83D004F
:1024A000211D206801F0B6FB012084F83D000020CA
:1024B00010BD70470168CA6842F00102CA60006836
:1024C000816801F00701062903D0016841F001018C
:1024D000016000207047704770B5044600680169CC
:1024E0004FF00005C943890715D4C168C94389075E
:1024F00011D4E91E016101202077206880698007DE
:10250000204602D0FFF7E7FF04E000F098F82046ED
:1025100000F096F8257720680169C943490717D468
:10252000C168C943490713D46FF004010161022057
:1025300020772068806910F4407F204602D0FFF7A2
:10254000CAFF04E000F07BF8204600F079F8257718
:1025500020680169C943090716D4C168C94309073E
:1025600012D46FF008010161042020772068C0694F
:102570008007204602D0FFF7AEFF04E000F05FF8CE
:10258000204600F05DF8257720680169C943C90637
:1025900017D4C168C943C90613D46FF01001016193
:1025A000082020772068C06910F4407F204602D0C0
:1025B000FFF791FF04E000F042F8204600F040F8F9
:1025C000257720680169C943C90708D1C168C94393
:1025D000C90704D1891E0161204600F033F8206844
:1025E0000169C943090609D4C168C943090605D46C
:1025F0006FF0800101612046FFF73EFF206801690E
:10260000C943490609D4C168C943490605D46FF0D6
:1026100040010161204600F01FF820680169C943AC
:1026200089060BD4C168C943890607D46FF020011D
:1026300001612046BDE87040FFF71FBF70BD7047C5
:102640007047000000680349884201D1FEF718BFB7
:102650007047000000100040704770B5040004D0BF
:1026600094F83900002510B106E0012070BD84F80F
:102670003850204600F022F8242084F839002068E1
:10268000C16821F40051C160204601F043FB20687D
:10269000016921F4904101612068416921F02A011A
:1026A00041612068C16841F40051C160E5632020A8
:1026B00084F8390084F83A00002070BD2DE9F04319
:1026C00087B0044614216846FDF7B2FD4348DFF8A1
:1026D00008C1256800224149103802230324082735
:1026E000DFF8FC904FF44066654518D10A6842F463
:1026F00000220A60096801F400210591016841F097
:1027000004010160006802AA00F0040005900120A5
:1027100082E89100CDE90063694648461DE0DFF894
:10272000C4804FF0070C45451CD10D6845F40035B9
:102730000D60096801F400310591016841F0010163
:102740000160006802AD00F0010005900C20CDE9A9
:10275000000385E8141069462348FEF7A5FD07B07D
:10276000BDE8F083DFF88480454517D10D6845F456
:1027700080250D60096801F480210591016841F010
:10278000020101600068009600F00200CDE904C07B
:102790000394CDE9013269461548DEE715498D42BB
:1027A000DDD10E49091D0D6845F020050D60096851
:1027B00001F020010591016841F004010160006809
:1027C00002AD00F004000590C020CDE9000385E8CB
:1027D000940069464846C0E7004C0040403802403B
:1027E0000008024000440040000002400048004051
:1027F00000040240001401402DE9F843044690F81B
:102800003A00994616460D46202852D1BDB1B6B1C0
:1028100094F8380001284CD0012084F838000027B3
:10282000E763222084F83A002C34FEF723FE24F8D4
:10283000026B804624F80A6B04F8387931E00120F5
:10284000BDE8F883E08D401EE085A0684346B0F502
:10285000805F4FF000024FF020012046CDF800903D
:1028600004D001F0EBFA98B10320E9E701F0E6FAB1
:102870000028F9D1206900282068406803D0C1B23F
:1028800025F8011B0DE0C0F3080125F8021B08E044
:10289000206900282068406801D000F07F0005F81A
:1028A000010BE08D0028CDD1202084F83A000020D3
:1028B000C6E70220C4E72DE9F843044690F8390042
:1028C0001F4616460D46202850D1B5B1AEB194F83A
:1028D000380001284AD0012084F838004FF0000861
:1028E000C4F83C80212084F83900FEF7C3FDA6849B
:1028F0008146E68484F8388026E00120BDE8F8832C
:10290000E08C401EE084A0684B46B0F5805F4FF03D
:1029100000024FF080012046009703D001F08EFAAC
:10292000E8B90DE001F08AFAC8B928882168C0F337
:1029300008004860206908B16D1C05E0AD1C03E08B
:10294000216815F8010B4860E08C0028D8D14B466F
:10295000002240212046009701F070FA08B10320C0
:10296000CCE7202084F839000020C7E70220C5E723
:10297000FEE70121084600F0F9B80121022000F02D
:10298000F5B800002DE9F04106AC94E8E0101E4CCB
:10299000A061A180E280236225826682A782A4F8DA
:1029A00016C000F053F8022020702820A0701420D8
:1029B000FEF768FC032000F059F90520FEF762FCE1
:1029C000032000F053F90120FEF75CFC032000F027
:1029D0004DF90120FEF756FC022000F047F90120D6
:1029E000FEF750FC0F2000F065F9012000F062F9BD
:1029F0000320FEF747FC282000F05CF9BDE8F04119
:102A00000320FEF73FBC00000C00002010B5094C6D
:102A10000122E188A069FEF728FD0A2000F060F895
:102A20000022E188A069FEF720FDBDE810403C20AF
:102A300000F056B80C00002002000348818880692D
:102A400000D00122FEF711BD0C00002000B587B0B8
:102A500005A96846FEF700FF0398A8B3FEF71CFF20
:102A60005FEA4000FDF77DFC9FED191B53EC112B35
:102A7000FDF705FCFDF782FC17490A6842F00202E7
:102A80000A6016490A6822F010020A600A6822F0F9
:102A900001020A600A6822F004020A600A6842F031
:102AA00008020A600D492831401E08600920091DEE
:102AB00008600A49012014310860081F016821F0EC
:102AC0000101016007B000BDFFE7FEF7E5FEC9E7C1
:102AD0008DEDB5A0F7C6B03E40380240000400407E
:102AE0000949401E086008481C38016821F00101AE
:102AF000016005492C390A6842F001020A60016848
:102B0000C907FCD0704700002C04004010B501201C
:102B100000F0D0F8BDE810400320FEF7B3BB000082
:102B20000349487820F00100487000F0C3B8000065
:102B30000C0000200349487820F00200487000F0A3
:102B4000B9B800000C00002070B50646002409E06A
:102B50000120FFF771FF284600F016F8641CE4B26C
:102B6000102C02D2355D002DF2D170BD491E01F04E
:102B70000F01012804D041F0C00000BF00F09AB856
:102B800041F08000FAE700002DE9F84F0209364CC9
:102B900002F0080302F0040B217802F0020902F0AF
:102BA000010700F0080A00F0040600F0020500F03A
:102BB0000108009301292FD0022952D13A46218AD7
:102BC000206AFEF752FC4A46618A206AFEF74DFCF5
:102BD0005A46A18A206AFEF748FCE18A009A206AD8
:102BE000FEF743FCFFF712FF4246218A206AFEF7F8
:102BF0003CFC2A46618A206AFEF737FC3246A18AED
:102C0000206AFEF732FC5246E18A206AFEF72DFC6C
:102C1000BDE8F84FFFF7FABE42462189E069FEF7AA
:102C200024FC2A466189E069FEF71FFC3246A1892F
:102C3000E069FEF71AFC5246E189E069FEF715FCEF
:102C40003A46218A206AFEF710FC4A46618A206AC9
:102C5000FEF70BFC5A46A18A206AFEF706FC009A92
:102C6000D2E7BDE8F88F00000C00002070B50546E3
:102C70000020FFF7E1FE0E4C05F00102218A206AD8
:102C8000FEF7F3FB05F00202618A206AFEF7EDFB16
:102C900005F00402A18A206AFEF7E7FB05F00802AE
:102CA000E18A206AFEF7E1FBBDE87040FFF7AEBEA7
:102CB0000C00002010B504460020FFF7BDFE2046A2
:102CC000BDE81040FFF760BF10B5142000F075F8A4
:102CD000800705D10321BDE81040142000F08FB813
:102CE00010BD7CB50446002529460D2000F01DF9D5
:102CF000932020702020607001A8234600900222BB
:102D000019460C2000F087F8010009D1225C401C14
:102D10005540C0B20428F9D3205CA84200D002215B
:102D200008467CBD10B504460146262000F04CF84C
:102D3000002804D12046BDE81040FFF7D2BF10BDE7
:102D400070B50C46054600F038F820EA0401284624
:102D5000BDE8704000F0E9B810B50022835C8C5CDF
:102D6000A34201D0022010BD521CD2B2052AF5D3D5
:102D7000002010BD10B500F03EF88D212A2000F093
:102D8000D4F83E212B2000F0D0F81E212D2000F099
:102D9000CCF800212C2000F0C8F87021262000F08B
:102DA000C4F84021152000F0C0F83D21112000F0AA
:102DB000BCF8BDE81040FFF787BF7E2101EA400064
:102DC00040F0800000F0C6BD7CB50C4605460721EA
:102DD0000D2000F0AAF8257001A8234600900122DA
:102DE00019460C2000F017F818B9BDF80410102986
:102DF00000D002207CBD0F21012000F096B870B5F4
:102E00000C460546FFF7D9FF40EA04012846BDE815
:102E1000704000F08AB82DE9FF5F00270226DDF838
:102E200038A015468B468146B8460C2805D0B9F126
:102E30000E0F05D11227102001E0772730208046A1
:102E400047F08001022000F070F880210420FFF795
:102E500077FF80210A20FFF7D2FF0021012000F038
:102E600064F8002406E01BF80410092000F05DF867
:102E7000641CA4B2AC42F6D34946012000F055F8D8
:102E8000B9F10C0F03D180210D20FFF7B8FF4FF4EB
:102E9000FA650420FFF791FF6D1E2D0404462D0CEA
:102EA00004D0E00702D114EA080FF2D080210D20EF
:102EB000FFF746FF35B10620FFF77FFF10F01B0F2D
:102EC00004D0022604B03046BDE8F09F00263C4006
:102ED000E00700D00126B9F10C0FF3D10A20FFF76B
:102EE0006CFF04460C20FFF768FF10F007004FEA64
:102EF000C40104D008390844AAF8000001E0AAF887
:102F0000001024B1102C04D91024002503E0012462
:102F1000FBE7002506E00920FFF74FFF039948551E
:102F20006D1CADB2A542F6D3CCE77E2202EA40008A
:102F300000F028BD7FB500251A480095019502953F
:102F400017490395016001244FF480310461C0E901
:102F50000115047680F820501349C0E90A150226AD
:102F6000C661C56080F830404461FDF702FF08B1DA
:102F700072B6FEE707200095CDE901406946094891
:102F8000FDF7B0FD08B172B6FEE7CDE9004669462F
:102F90000448FDF7A7FD002801D072B6FEE77FBD0B
:102FA00000200140502200200100000F10B504490C
:102FB0000448FDF756FD0249491E087010BD000087
:102FC000A9000020940000202DE9F04F87B01421C3
:102FD0006846FDF72DF94B480024016841F0800157
:102FE0000160016801F080010591016841F0040170
:102FF0000160016801F004010591016841F00101DF
:103000000160016801F001010591016841F01001C2
:103010000160016801F010010591016841F00201B1
:103020000160016801F002010591016841F00801A9
:1030300001600068344F00F0080005900022022172
:103040003846FEF712FADFF8C4800022102140460D
:10305000FEF70BFADFF8B8904FF4F856002231462D
:103060004846FEF702FADFF8ACA0002238215046AD
:10307000FEF7FBF9DFF8A0B0002203215846FEF767
:10308000F4F9022000900125CDE901546946384643
:103090000394FEF709F910200090CDE90154694628
:1030A00040460394FEF700F94FF42070CDE9000488
:1030B000694658460294FEF7F7F80096CDE90154A8
:1030C000694648460394FEF7EFF87820CDE90004FE
:1030D000694648460294FEF7E7F838200090CDE9AB
:1030E0000154694650460394FEF7DEF80320009031
:1030F000CDE90154694658460394FEF7D5F807B068
:10310000BDE8F08F30380240000802400000024065
:10311000000C0240000402400010024010B586B0CE
:1031200014216846FDF784F81D4800241B490594C6
:10313000C0E900147F218160FF21C0E903144461CC
:103140008461FEF7F5FD08B172B6FEE717208DF831
:1031500000003B208DF801002D208DF80200039423
:10316000002269460E480494FEF7A8FE08B172B624
:10317000FEE701208DF814008DF815008DF816007B
:103180008DF81740002205A90548FEF733FE0028F8
:1031900001D072B6FEE706B010BD00000028004066
:1031A000982200200F4810B50D4901604FF482713C
:1031B000416000218160C1604FF400720161C0E98B
:1031C00005122022C0E90721416281620A21C16201
:1031D000FEF705FF002801D072B6FEE710BD000023
:1031E00000300140B82200200F4810B50D490160A1
:1031F0004FF48271416000218160C1604FF4007220
:103200000161C0E905121022C0E907214162816213
:103210000A21C162FEF7E3FE002801D072B6FEE784
:1032200010BD00000038004010230020FEE7FEE73C
:10323000704700002DE9F0410025154E2C4601276E
:1032400040213046FEF70CF90028F9D0502001F05B
:103250000DFD40213046FEF703F901280BD0C4F1E3
:10326000070007FA00F08543641CE4B2082CE7D39A
:103270002846BDE8F08140213046FEF7F1F80128EC
:10328000F9D0C4F1070007FA00F0C0B20543EBE73C
:1032900000040240010901EB810100F00F0000EB86
:1032A0004100C0B27047002102E00A38C0B2491C98
:1032B0000A28FAD2090740EA1160704770B504463F
:1032C0000068C168490614D44FF0FF31C160FEF7B1
:1032D000D1F805464FF47A7607E000BFFEF7CAF84A
:1032E000401BB04201D9032070BD2068C068400671
:1032F000F4D5002070BD000030B585B00446FDF760
:10330000D3FB294D002240212846FEF7AEF81420B9
:10331000FDF7B8FF012240212846FEF7A6F850200D
:1033200001F0A4FC402000900020019003200390B5
:1033300069462846FDF7B8FF40212846FEF790F879
:1033400010B1022005B030BD40212846FEF788F8B4
:103350000028F9D040212846FEF782F80128F9D04C
:10336000FFF768FFA070FFF765FFE070FFF762FFEF
:103370002070FFF75FFF6070FFF75CFF2071FDF7C3
:1033800093FB012240212846FEF76FF8A078E178F0
:10339000627808442178114408442179884201D197
:1033A0000120CFE70020CDE7000402407CB541F6C4
:1033B000FF74FDF7DDFA0025FF2000F04BFB6D1CCC
:1033C0000A2DF9DB00F0A8FA40208DF8000000205B
:1033D0008DF801008DF802008DF803008DF80400CF
:1033E00095208DF805000621684600F025FB00F0C9
:1033F0000DFB012806D0641E00F008FB012801D057
:10340000002CF8D1FDF7B4FAFF2000F023FB0249AD
:10341000012048707CBD00003000002010B5064C33
:103420004FF4FA70A4F8060000F0F0FAFF2802D07A
:10343000E1880029F8D110BD3000002070B50F4C94
:103440000546C8200E46A08000F0E0FAFF2803D011
:10345000FE2805D0002070BDA0880028F4D1F9E72F
:103460002C466D1C00F0D2FA2070761EF8D200F0C7
:10347000CDFA00F0CBFA012070BD00003000002032
:1034800070B50C460546FFF7C9FFFF2801D0FF20A5
:1034900070BD284600F0DEFA200E00F0DBFAC4F31F
:1034A000074000F0D7FAC4F3072000F0D3FAE0B2E7
:1034B00000F0D0FA402D07D0482D07D0012000F0B1
:1034C000C9FA4C2D06D007E0952000E0872000F0D7
:1034D000C1FA01E000F09AFA5FF00A0400F096FAEF
:1034E0000106D5D5641E14F0FF04F7D170BD70B588
:1034F0000E4605460024FFF791FFFF2820D13046F5
:1035000000F0A8FAFD2E17D04FF40071284600F005
:1035100093FA00F07BFA00F079FA00F077FA0546AA
:1035200000F01F00052803D0641CE4B2402CF4D93D
:1035300000F06CFA0028FBD005F01F00052801D030
:10354000002070BD012070BDF8B508B10120F8BDA4
:10355000484C2078800772D4FFF728FF00F0DCF990
:10356000002529464020FFF78BFF012872D14FF438
:103570007A70A0804FF4D5714820FFF781FF0128B1
:103580000DD000217720FFF77BFF012841D80021D3
:103590006920FFF775FF01283BD8022540E000268F
:1035A0004FEA0D0700F032FAB855761CF6B2042E39
:1035B000F8D39DF8020001284CD19DF80300AA28F9
:1035C00048D1460700217720FFF75AFF012804D889
:1035D00031466920FFF754FF18B1A0880028F1D1C7
:1035E00038E0A08860B300217A20FFF749FF38BB9C
:1035F0005FF0000500F00AFA78556D1CEDB2042D5D
:10360000F8D39DF80000400601D50C2522E00425E2
:1036100020E0012501E0022D02D00021412007E039
:1036200000217720FFF72CFF012804D80021692012
:10363000FFF726FF28B1A0880028ECD109E016E0AA
:1036400008E0A08828B14FF400715020FFF718FF60
:1036500000B10025A570FDF78BF900F0D7F925B171
:10366000207820F00100207001E0002060702078B8
:10367000F8BD0000300000207FB515460E4610B1A1
:10368000042004B070BD01244A48052E04D00078FF
:10369000C00713D00320F4E7297829B1012906D007
:1036A000022907D0042482E00021417004E0FFF7E2
:1036B0007DFE01E040785070002478E000F02CF9A5
:1036C0000B2E51D005DCEEB3012E07D0022E69D1AE
:1036D00041E00C2E4BD00D2E64D154E00021492046
:1036E000FFF7CEFE78BB10216846FFF7A7FE50B368
:1036F0009DF800100120B0EB911F09D19DF8082022
:103700009DF8091000EB022008440004800920E025
:103710009DF805009DF80A1000F00F0000EBD11095
:103720009DF809109DF8072001F0030100EB41010D
:103730009DF80800800900EB82009DF8062002F049
:10374000030201E00BE02EE000EB8220401CC91FC9
:103750008840286015E04FF40070288011E0FFF7E2
:103760005DFEFF280DD01EE00021492001E0002170
:103770004A20FFF785FEB0B910212846FFF75EFE0C
:1037800088B100240FE000217A20FFF779FE48B9C4
:103790005FF0000400F03AF9641CE4B205F8010B94
:1037A000042CF7D30424FDF7E3F800F02FF92046AA
:1037B00067E70000300000202DE9F0411C46154667
:1037C0000E4638B934B121480178C90704D0032026
:1037D000BDE8F0810420FBE78078400700D4550263
:1037E00000F09AF84FF40077012C294604D05220BB
:1037F000FFF746FE70B11AE05120FFF741FEE0B935
:1038000039463046FFF71AFEB8B1FDF7B1F800F0BF
:10381000FDF818E039463046FFF710FE18B1641E77
:1038200006F50076F6D100214C20FFF729FEFDF7C2
:103830009FF800F0EBF824B905E0FDF799F800F0E7
:10384000E5F80120C4E70020C2E7000030000020B6
:1038500008B101207047014800787047300000200F
:103860002DE9F0411C4616460F4638B934B1294DB2
:103870002878C00704D00320BDE8F0810420FBE7CE
:103880002878400701D50220F6E7A878400700D441
:10389000560200F041F8012C10D0A878800707D517
:1038A00000217720FFF7ECFD21465720FFF7E8FDC8
:1038B00031465920FFF7E4FD78B11CE0314658202D
:1038C000FFF7DEFDF0B9FE213846FFF710FEC8B164
:1038D000FDF74EF800F09AF819E0FC213846FFF7A2
:1038E00006FE18B1641E07F50077F6D1FD21002011
:1038F000FFF7FDFD30B1FDF73BF800F087F834B17C
:103900000120B9E7FDF734F800F080F8F8E700206F
:10391000B2E700003000002010B50022102104485A
:10392000FDF7A3FDBDE810400120FDF7ABBC000092
:10393000000002400EB501238DF804000A2000901B
:1039400002AA01A90248FEF7A1FC9DF808000EBDDD
:103950001023002070B50A4D04460022022128469B
:10396000FDF783FD2046FFF7E5FF0020FFF7E2FFAC
:103970000446012202212846FDF777FD204670BD4E
:103980000008024070B50A4C0E460546002202218E
:103990002046FDF76AFD2846FFF7CCFF3046FFF7CB
:1039A000C9FF2046BDE8704001220221FDF75DBD40
:1039B0000008024038B504461248134B0068B0FBBB
:1039C000F3F04FF47A73584300906068B0F5827F4B
:1039D0000DD10B46009200228021204600F04AF8CB
:1039E00070B1606D40F020006065032038BD009824
:1039F00030B1401E009020688068C0430006F6D5B4
:103A0000002038BD9000002000366E010EB5FF206A
:103A10008DF804000748006881688907FCD5642098
:103A20000090012302AA01A90248FEF72FFC9DF88D
:103A300008000EBDB8220020054A126893689B0753
:103A4000FCD50A46014664230148FEF771BB00001D
:103A5000B822002001B50648006881688907FCD5B6
:103A60006423012269460248FEF762FB08BD00009C
:103A7000B82200202DE9F0411D4617460E460446A7
:103A8000DDF8188008E0681C06D0FDF7F3FCA0EB19
:103A90000800A8420BD255B12068806836EA0000C1
:103AA00030D00020B842EED10020BDE8F08120687F
:103AB000416821F0E00141606068B0F5827F0BD180
:103AC000A068B0F5004F02D0B0F5806F04D1206837
:103AD000016821F040010160A06AB0F5005F09D1E2
:103AE0002068016821F4005101602068016841F4F8
:103AF00000510160012084F85100002084F850003A
:103B00000320D2E70120CDE770470000084910B537
:103B1000088808B1401E08800649088808B1401E80
:103B20000880FDF7ADFCBDE81040FEF7A1BC000029
:103B3000340000203600002030B597B030216846B0
:103B4000FCF776FB14210CA8FCF772FB0025254836
:103B50001195129513951495016841F080510160FB
:103B6000006800F0805015901F48016841F48041C2
:103B700001600068022400F4804015900920009044
:103B80004FF4803001900120CDE9050480050790B5
:103B900008AA0420A82182E813000B906846FDF7CC
:103BA000CBFE08B172B6FEE70CA90F2081E8310008
:103BB0004FF4A0500F904FF48050109005210CA8A6
:103BC000FDF7B0FD08B172B6FEE74FF40070149037
:103BD000119411A8FDF708FD002801D072B6FEE788
:103BE00017B030BD40380240007000400548016801
:103BF00041F47001016003494FF0006080390860B2
:103C00007047000088ED00E00148FEF765BC000049
:103C1000DC240020F0B50268254C264D264E274FA7
:103C2000274B4FF0804CA04209D0604507D0A842F6
:103C300005D0B04203D0B84201D0984204D122F05E
:103C4000700E4A6842EA0E02A0421BD0604519D0AD
:103C5000A84217D0B04215D0B84213D0984211D024
:103C6000184DA8420ED0184DA8420BD0174DA842AF
:103C700008D0174DA84205D0164DA84202D0164DC7
:103C8000A84203D122F44075CA682A434D6922F044
:103C900080022A4302608A68C2620A688262A04285
:103CA00001D0984201D10969016301214161F0BD50
:103CB000000001400004004000080040000C0040EB
:103CC0000004014000400140004401400048014020
:103CD00000180040001C0040002000400C4810B5B7
:103CE0000A4901604FF461414160002181600C226A
:103CF000C160C0E904128161C161FEF7AEFC002819
:103D000003D0BDE81040FCF7AABE10BD004800403B
:103D1000B80000202DE9F041044600680169E2681E
:103D200021F44051114301612169A068E26908430F
:103D30006169114308432168CA6849F20C639A43D8
:103D40000243CA6020684169A26921F440711143AD
:103D50004161E069192764253226B0F5004F354AE4
:103D6000354920684FF0000806D0884201D09042C3
:103D700036D1FDF7A1FD35E0884201D0904202D155
:103D8000FDF79AFD01E0FDF787FD61684A18A0FB89
:103D9000070148EB0803FCF713FA0146B0FBF5F006
:103DA0000201B1FBF5F06FF01803584301EB8000FE
:103DB00006EBC000B0FBF5F000F0F80002EB4002AB
:103DC000B1FBF5F0584301EB800006EBC000B0FBFF
:103DD000F5F000F00700216810448860BDE8F0812C
:103DE000FDF75AFD61688B0F8A00A0FB0701FCF705
:103DF000E7F90146B0FBF5F06FF01802504301EB14
:103E0000800006EB0010B0FBF5F000F0F002B1FB13
:103E1000F5F002EB0012B1FBF5F06FF01803584318
:103E200001EB800006EB0010B0FBF5F000F00F0096
:103E3000D1E7000000140140001001402DE9F041DD
:103E4000984617460E460446069D1DE0681C1BD08A
:103E50002DB1FDF70FFBA0EB0800A84214D9206894
:103E6000C16821F4D071C1602068416921F001016D
:103E70004161202084F8390084F83A00002084F859
:103E800038000320BDE8F0812068006836EA0000B1
:103E900004D00020B842D9D00020F3E70120F9E790
:103EA000FFF752BBFFF7E8BBFFF786BCFFF7D0BCBC
:103EB000FFF7D6BCFEE700000FB4084B10B504A90D
:103EC00002AA039800F0DEF8044602A9002000F0E0
:103ED00070FC204610BC5DF814FB0000B3470008DE
:103EE0000907090E002804DB00F1E02080F8001427
:103EF000704700F00F0000F1E02080F8141D7047BB
:103F000002E008C8121F08C1002AFAD170477047A2
:103F1000002001E001C1121F002AFBD17047000000
:103F20002DE9FF5FDDE90220010DDDF838B0024325
:103F300018D044F61050A1F2FF3141430D140F98F0
:103F4000012820D0A5EB0B00401C5FEA000A4FF0CF
:103F50000004474EDFF81C91A046504616D5CAF122
:103F6000000728E00F98012443A2012808D000216F
:103F700000980F9BC0E90021C0E90243BDE8FF9F04
:103F80006FEA0B01F4E7CBF10000DEE7074612E031
:103F9000F80707D02246334640464946FCF76FF9FA
:103FA000804689462246334610461946FCF767F993
:103FB00004460E467F10002FEAD1DDE90201BAF176
:103FC000000F42464B4602DAFCF759F901E0FCF7D4
:103FD00027FB04460E460022284BFCF7A9FB03D81A
:103FE0004FF0FF30014607E00022254B20463146C6
:103FF000FCF76FFAFCF783FB102409E0002C0ADBC6
:104000000A220023FCF7DCF8019B30321A55641EAB
:1040100050EA0102F2D1641C019AC4F11103144464
:104020000F9A012A03D0012208430DD10AE0084368
:1040300004D000204FF0110B0F9080E7A3EB0B058D
:104040006D1E0DE05B4504DD4FF0000205F101053A
:1040500004E003DA4FF00002A5F10105002AECD0DC
:1040600000980F99C0E90231C0E9004586E70000D9
:10407000000024400000F03F300000000000F0434A
:104080000000E03F2DE9FF4F95B09B46894606466C
:1040900000250FE2252877D100242746F84A012180
:1040A000059400E0044316F8013F203B01FA03F0B9
:1040B0001042F7D130782A2811D06FF02F033078D2
:1040C000A0F13002092A16D8059A44F0020402EB46
:1040D000820203EB42021044761C0590EFE759F888
:1040E000042B0592002A03DA504244F40054059050
:1040F00044F00204761C30782E2816D116F8010FF1
:1041000044F004042A280DD06FF02F023078A0F17B
:104110003003092B09D807EB870302EB4303C718C9
:10412000761CF3E759F8047B761C30786C280FD0A6
:1041300006DC4C2817D068280DD06A2814D104E07A
:10414000742810D07A280FD10DE044F400140AE04E
:1041500044F4801401E044F440147278824202D1A5
:1041600004F58014761C761C307866280BD013DC9E
:10417000582877D009DC002875D04528F6D0462885
:10418000F4D047281AD19DE118E0632835D064287F
:1041900079D0652812D195E1702873D008DC6728A2
:1041A000F1D069286FD06E280DD06F2806D1B5E008
:1041B00073282CD0752875D0782874D05A46179952
:1041C00090476D1C75E1C4F30250022809D0032802
:1041D0000DD0D9F8001004280DD00D6009F10409A4
:1041E00067E1D9F80010EA17C1E90052F6E7D9F8FB
:1041F00000100D80F2E70D70F0E719F8041B8DF840
:10420000001000208DF80100EA46012003E059F873
:1042100004AB4FF0FF3061074FF0000102D40DE016
:1042200008F101018846B9420FDA8045F8DB1AF837
:1042300008100029F4D108E008F101018846814204
:10424000FADB1AF808100029F6D105985B46A0EBB6
:10425000080721463846179A00F094FA284400EBE4
:10426000080507E04DE029E10DE01AF8010B5A4678
:1042700017999047B8F10108F7D25B4621463846B6
:10428000179A13E142E00A220092C4F302524FF05F
:10429000000A022A08D059F804CB032A4FEAEC712D
:1042A0000AD00DE029E02AE009F1070121F0070218
:1042B000F2E802C1914609E00FFA8CFC4FEAEC717A
:1042C000042A03D14FFA8CFC4FEAEC71002907DA7B
:1042D0000A460021DCF1000C61EB02012D2202E014
:1042E000220504D52B228DF80420012203E0E207E9
:1042F00001D02022F7E7904659E00A2102E010227F
:104300000DE010214FF0000A00910BE010224FF059
:10431000000A44F004040827009203E008224FF04A
:10432000000A0092C4F30252022A05D059F804CBC5
:104330000021032A08D009E009F1070121F0070252
:10434000F2E802C1914605E01FFA8CFC042A01D173
:104350000CF0FF0C4FF00008220728D5702806D07B
:10436000009B83F0100353EA0A0305D00EE04022BD
:104370008DF80420012208E05CEA010206D0302218
:104380008DF804208DF8050002229046009B83F0F2
:10439000080353EA0A030AD15CEA010201D1620769
:1043A00005D530228DF804204FF001087F1E5828D3
:1043B00004D034A003900EA802900DE036A0F9E7D7
:1043C00053466046009AFBF7FBFE84460398825CE6
:1043D0000298401E029002705CEA0100F0D102983F
:1043E00006A9081A00F1200A600702D524F48034D7
:1043F00000E00127574502DDA7EB0A0000E000209E
:1044000000EB0A01009005984144401A0590E00332
:1044100006D45B462146179A059800F0B3F9054487
:10442000002706E001A85A46C05D179990476D1C09
:104430007F1C4745F6DBE0030CD55B462146179A07
:10444000059800F09FF9054404E030205A4617997A
:1044500090476D1C0099481E00900029F5DC08E08B
:10446000029802995A460078491C02911799904780
:104470006D1CBAF10001AAF1010AF1DC65E100004E
:10448000092801003031323334353637383961622A
:1044900063646566000000003031323334353637EE
:1044A00038394142434445460000000000F058F9C5
:1044B0000544761C307800287FF4ECAD19B028460E
:1044C000BDE8F08F620700D4062709F1070222F049
:1044D000070CFCE80223E14603F000485FEA080C01
:1044E00002D00FF2702C0DE05FEA045C02D50FF2EF
:1044F000682C07E05FEAC47C02D00FF2602C01E078
:10450000AFF2700C4FF0FF3823F00043CDF850C0ED
:1045100065280CD006DC452809D046281DD0472840
:104520003DD13DE0662818D067287ED138E00021D3
:10453000112F01DB112000E0781CCDE9000106A954
:104540000EA8FFF7EDFCDDE90F010E9A03910021A3
:10455000009207F1010A04914DE04FF000400097EE
:10456000CDE9011006A90EA8FFF7DAFCDDE90F027C
:1045700003920E9B11990022DDF80CA00093049287
:1045800011B9791C00EB010AB7EB0A0004D4C0F1A1
:10459000FF3007F1010A0490AAEB0700019044E004
:1045A000012F00DA01270021112F01DD112000E089
:1045B0003846CDE9000106A90EA8FFF7B1FCDDE9F8
:1045C0000F010E9A0391002104910092BA4621072F
:1045D0000CD40399514500DA8A46BAF1010F05DD82
:1045E000009AAAF10101515C302908D0B84202DAE0
:1045F00010F1040F06DA0121CDE9011015E0AAF14E
:104600000101E9E7002805DC049901440491AAEBC3
:10461000000102E0411C514500DD8A460499401A20
:10462000401C01904FF000400290200704D40198F4
:10463000504501DBCDF8048000208DF84F00029832
:104640000DF14F07B0F1004F25D02B200E900298AE
:104650004FF0020800280CDA404202902D200E9004
:1046600007E00A210298FBF7A2FE3031029007F81A
:10467000011DB8F10001A8F10108F2DC0298002840
:10468000EFD1791E0E980870307800F0200040F0CD
:10469000450007F8020D12A8C01B00F10708149886
:1046A000007800B1012000EB0A01019801EBE071F4
:1046B00005984144401A401E0590E00306D45B462D
:1046C0002146179A059800F05DF805441498007883
:1046D00018B15A46179990476D1CE00324D55B46E4
:1046E0002146179A059800F04DF805441CE00498FF
:1046F000002807DBDDE90301884203DD0098405C08
:10470000179901E0179930205A469047049805F10F
:104710000105401C04900198401E019004D12E20F8
:104720005A46179990476D1CBAF10001AAF1010A87
:10473000DDDC05E017F8010B5A46179990476D1C10
:10474000B8F10001A8F10108F4DC5B462146179A94
:104750000598ABE62D0000002B00000020000000B3
:104760002DE9F041044600251E461746880404D46E
:1047700005E039462020B0476D1C641EF9D5284657
:10478000BDE8F0812DE9F041044600251E46904623
:10479000C80301D5302700E02027880404D505E0B0
:1047A00041463846B0476D1C641EF9D52846BDE821
:1047B000F0810A68531C0B6010707047014600209E
:1047C00000E0401C11F8012B002AFAD170470000CC
:1047D00010B504460020E070401E6063204601F0E2
:1047E000ADFF08B1042010BD04F2362001F0EEFB4D
:1047F000A0F52A41553901D0032010BD94F83800A6
:10480000E92805D0EB2814D194F83A00902810D16B
:1048100004F16E0001F0CFFB0749B1EB002F06D089
:1048200004F18A0001F0C7FB0449884201D100204D
:1048300010BD022010BD00000046415446415433D3
:1048400000E0401C02780AB18A42FAD1D0B2704727
:10485000F0B50022144D134605EB021426685EB134
:104860000768BE4209D166688768BE4205D1A46860
:104870004669B44204D000E00123521C022AEBD363
:10488000022A01D069B904E04BB9022907D01220ED
:10489000F0BD05EB02108089B0F5807F01D00020CB
:1048A000F0BD1020F0BD00001C25002030B5002117
:1048B000054B0C4603EB01121568854200D11460CC
:1048C000491C0229F6D330BD1C2500200268C06AAD
:1048D000938952895343B1FBF3F1001D04C81AB107
:1048E000914203D3891AF8E7002070470068084412
:1048F0007047C269891E921E8A4201D80020704703
:10490000026B408901FB0020704700002DE9F05F39
:1049100082460C4601F11A0001F058FB78BB207862
:10492000012700F03F00401E00EB8001DFF85890A7
:1049300001EBC00500264FF6FF7B00BF19F806000B
:10494000204401F043FB80466FB1FF2D17D200F0E9
:10495000C7FE07463AF815006D1C00F0C1FE8742FD
:104960000DD1474601E0D84509D1761C0D2EE5D37F
:104970002078400606D52FB13AF8150010B1002076
:10498000BDE8F09F0120FBE7306D00082DE9F04104
:1049900005680F00804606D001F0A2F9022809D26E
:1049A0000120BDE8F0816E6916B1E869B04207D810
:1049B000012605E0411CF4D0E9698142F1D83E4668
:1049C0003446E869641CA04202D80224022E0AD3AD
:1049D0002146404601F084F938B10128E1D0411C5C
:1049E000DFD0B442EDD10020DBE74FF0FF36324696
:1049F0002146284601F0BBFE30B957B12246394660
:104A0000284601F0B4FE20B101280FD00124204631
:104A1000C7E76C61D5E90601891E884201D8401EAE
:104A2000A861287940F001002871F0E73446EEE7EC
:104A30002DE9F84F824600680E6800240769884611
:104A40002546705D6D1C20281AD32F2813D05C28B2
:104A500011D0FF2C39D2012100F026FE5FEA0009B7
:104A600033D0B9F1800F12D201466DA0FFF7E8FEF6
:104A700058BB0CE06D1C715D2F29FBD05C29F9D06F
:104A80007219C8F80020202805D204250FE027F865
:104A90001490641CD5E7002509E000BF07EB440033
:104AA00030F8020C202801D02E2802D1641E002CE0
:104AB000F4D1002027F814003CB10B2220210AF188
:104AC000240001F0FFFD002603E00620BDE8F88F7A
:104AD000761C37F816002028FAD02E28F8D01EB100
:104AE00045F0030500E0641E2CB107EB440030F8EC
:104AF000020C2E28F7D14FF000094FF0080BCDF82B
:104B0000009000BF37F8160006F101065FEA0008C2
:104B100024D0B8F1200F04D0B8F12E0F04D1A64252
:104B200002D045F00305EDE70098584501D2A642B2
:104B300019D1BBF10B0F0FD0A64201D045F00305F0
:104B40000CD84FF0080000904FEA896026464FF0DD
:104B50000B0B4FEA1069D5E745F003059AF82400DE
:104B6000E52838D03AE04046B8F1800F10D3002154
:104B700000F09AFD5FEA000805D02C4901EB08001F
:104B800010F8800C804645F00205B8F1000F04D003
:104B9000014627A0FFF754FE20B14FF05F0845F013
:104BA00003050FE0A8F14100192802D849F00209D5
:104BB00008E0A8F16100192804D8413049F0010942
:104BC0001FFA80F8009A0AEB020181F8248000980D
:104BD000401C009096E705218AF82410BBF1080FCD
:104BE00003D14FEA89604FEA1069C9F381000328B5
:104BF00003D06FEA0901890701D145F00205A90731
:104C000009D409F00301012901D145F0100501285B
:104C100001D145F008058AF82F50002056E7000022
:104C2000222A3A3C3E3F7C7F00000000B06C000826
:104C30002B2C3B3D5B5D0000401E022812D20A492E
:104C400001EB00118889B0F5807F05D008B1401EC6
:104C500080B2888110B103E00020FAE700200860EC
:104C600000207047022070471C2500203EE000BF56
:104C700000BF00BF00BF00BF00BF00BF00BF00BF3C
:104C800000BF00BF00BF00BF00BF00BF00BF00BF2C
:104C900000BF00BF00BF00BF00BF00BF00BF00BF1C
:104CA00000BF00BF00BF00BF00BF00BF00BF00BF0C
:104CB00000BF00BF00BF00BF00BF00BF00BF00BFFC
:104CC00000BF00BF00BF00BF00BF00BF00BF00BFEC
:104CD00000BF00BF00BF00BF00BF00BF00BF00BFDC
:104CE00000BF00BF00BF00BF00BF00BF401EC0B27A
:104CF000BDD270472DE9F04704460021D0F800905E
:104D000000F0D4F900285BD1FF25471EA846276391
:104D10004846E16901F012FD060050D1216A087889
:104D200050B1CA7AE52802F03F02A2713FD01307C2
:104D300004D50F2A3BD105E0042640E00F2A01D01C
:104D4000E5B120E094F82F20520632D4420606D571
:104D500091F80D8000F0BF00626905462263A84209
:104D600009D14A7B424506D1D9F81000FFF7CEFDA4
:104D700008B16D1E00E0FF25EDB21AE0084601F013
:104D800027FE40451BD094F82F00C0070FD1D4F860
:104D9000201004F124000B2211F8013B10F8015BF4
:104DA0005B1B521E02D0002BF6D000E03BB1FF256A
:104DB00027630021204600F005F80600A8D0304601
:104DC000BDE8F0872DE9F047054647690468C069EA
:104DD0008946203710B1B7F5001F02D30420BDE883
:104DE000F087A189B7FBF1F201FB127100295FD1B5
:104DF000401CE861A9694FF0000819B3A0896289D5
:104E0000B7FBF0F0521E104252D1284600F068FF66
:104E1000064601281FD9701C36D0E069B04241D83F
:104E2000B9F1000F12D02846A969FFF7AFFD0600BF
:104E30000FD0012E0FD0701C26D0204601F01AFE94
:104E400010BB0AE02089B0EB571F31D8C5F81C8091
:104E5000C4E70720C3E70220C1E7A289002104F1CB
:104E6000380001F02FFC4FF0000831462046FFF7D4
:104E700040FD4FF0010960630DE000BF84F803902E
:104E8000204601F0F7FD08B10120A8E7606B08F1AA
:104E90000108401C606361894145EFD8616BA1EB5B
:104EA0000800606331462046AE61FFF722FDE861ED
:104EB0006F61A089B7FBF0F100FB1170204438301E
:104EC000286200208BE700002DE9F04F0446D0F85F
:104ED000009090F82F0089B010F0A00F03D00620AA
:104EE00009B0BDE8F08F0025D9F8100000E06D1C76
:104EF00030F815100029FAD104F124010C2268467B
:104F0000039101F0D5FB9DF80B00C00719D040209C
:104F100084F82F00012633466946D9F810200398FB
:104F200000F034FE2046FFF7E5FE10B9761C642E33
:104F3000F1D3642E0FD00428D2D19DF80B0084F851
:104F40002F009DF80B00800707D50D200C35B5FB11
:104F5000F0F56D1C02E00720C2E701250021204684
:104F6000276800F0A3F888B900263846E16901F007
:104F7000E5FB58B9206A0078E5280AD048B1002638
:104F800001212046FFF71EFF0028EED0042812D092
:104F900012E0761C2846AE42F2D1451E059567D038
:104FA0006169684201EB4011204600F07FF85FEA3A
:104FB000000803D076E00720804673E0039801F0F4
:104FC00007FD4FF6FF7B07904846E16901F0B6FB0D
:104FD0005FEA000866D1D9F8100006900598D4F869
:104FE0002080C0B20490079988F80D100F2188F82E
:104FF0000B10002188F80C1008F11A0001F0E4FCF5
:105000000498DFF8A4A0401E00EB800101EBC0066D
:10501000002701E05D4503D0069830F81650761C55
:105020001AF8071001EB0800294601F0CDFC05B97C
:105030005D467F1C0D2FEDD35D4505D0069830F8F9
:10504000160008B1049803E0049840F04000049072
:1050500088F80000012189F8031000212046FFF79D
:10506000B1FE5FEA00081DD10598401E0590ABD146
:105070004846E16901F062FB5FEA000812D1202294
:105080000021206A01F01EFB0B22206A039901F027
:105090000FFB94F82F00216A00F01800087301201C
:1050A00089F8030040461BE7306D00082DE9F04108
:1050B00004680F460646B1F5001F3CD2F8063AD107
:1050C0007761B56825B92078032806D3E56A25B14C
:1050D0006089A18900FB01F812E02089B0EB571F1D
:1050E00029D9E06A12E0304600F0FAFD0546401C7E
:1050F0001FD0022D1FD3E069A8421CD9A7EB0807D7
:1051000047452946EFD22046FFF7F3FBC6E9065094
:1051100088B1A189B7FBF1F10844F061A089B7FB20
:10512000F0F100FB11702044383030620020BDE8FF
:10513000F0810120FBE70220F9E70000084910B5E3
:105140000B5C002253B901220A540A1801EB8000BB
:10515000127A40680168104688470246104610BD22
:105160003C27002030B4054C231804EB80001B7A48
:10517000406804691846A44630BC60473C270020BC
:1051800030B4054D2C1805EB8000247A4068856802
:105190002046AC4630BC60473C270020044A11182A
:1051A00002EB8000097A4068426808461047000018
:1051B0003C27002030B4054D2C1805EB8000247AE4
:1051C0004068C5682046AC4630BC60473C2700209C
:1051D00038B5044600F048F900280CD1694620464D
:1051E00001F088FC002806D12069FFF725FD002882
:1051F00001D10021216038BD2DE9F74181B09046F1
:1052000002980090684600F0E1FD040003D50B20F1
:1052100004B0BDE8F0810D4E002756F824501DB1B2
:105220002846FFF743FB2F700198002800D0077035
:1052300046F8240002D0B8F1010F01D00020E7E7C2
:10524000002201A902A800F08BFAE1E7B4000020D7
:105250002DE9F74394B005000BD002F03F0632462B
:10526000694615A800F07CFA04004FF0000804D04D
:10527000F2E0092017B0BDE8F0830098049004A87C
:10528000159900F045FC04000ED19DF83F00000682
:1052900001D5062408E0700801D0012100E00021BA
:1052A00004A8FFF7D5FA044616F01C0F5DD04FF0A6
:1052B0000109C4B1042C10D100206A4902E0401C4D
:1052C000022804D201EB00121268002AF7D102284A
:1052D00007D004A8FFF7F8FD044646F008065CB1C5
:1052E000BAE01224B8E09DF8160010F0110F47D173
:1052F000700701D50824AFE0300747D500F064FD02
:1053000007460C9839460E3001F056FB0C9839468A
:10531000163001F051FB0C982021C1720C990098B5
:1053200000F036FE074600220C99009801F030FB91
:105330000C9800211C3001F03FFB009880F803908E
:1053400017B3D0F834900022394604A801F0A1FA2E
:10535000040009D14946009801F0F0F904000098D2
:10536000A7F1010747610DD076E0E4BB9DF8160078
:10537000C10601D504246FE0B10703D5C00701D0F1
:10538000072469E0300701D546F040060098406BDD
:1053900068620C98A862700801D0012100E0002129
:1053A00004A800F0B5FD2861B8B30C99009800F08E
:1053B000EFFDA8600C981C3000F0FDFDC5F82C80B6
:1053C000E8600099296005F13000C988A9802E7530
:1053D00085F81580C5F820804FF480520021814661
:1053E000C5F8188000E037E001F06CF9B00635D55B
:1053F000EE689EB3AE610098A968478980894743EB
:105400000FE0284600F06CFC0146012800D8022479
:10541000481C03D0F61B24B105E021E00124F61B53
:1054200001E0BE42EDD8E961B4B900988289B6FBCB
:10543000F2F302FB13628AB1FFF75BFA80B10099C5
:1054400001238A89B6FBF2F202442A62487849466F
:10545000FFF796FE10B10124C5F80080204609E749
:105460000224F9E71C250020F8B50446694601F03E
:1054700041FB00280ED1217D4A060BD508060ED52A
:105480000098226A0123407804F13001FFF792FE70
:1054900008B10120F8BD207D00F07F00207500F0EC
:1054A00093FC0646616A009801F048F90028F1D1A2
:1054B000A56A2946E87A40F02000E872A2682068D0
:1054C00001F066FA05F11C00E16801F075FA314659
:1054D00005F1160001F070FA002105F1120001F04B
:1054E00073FA00980121C17001F080FA217D01F06A
:1054F000BF012175F8BD2DE9F04F884689B0002124
:10550000196099461546044604A901F0F3FA0028EB
:1055100006D1607D002803D1207D800703D40720B9
:1055200009B0BDE8F08FA069012742194FF0020AC7
:1055300004F1300B824200D2C543ACE00498A1696B
:105540008289B1FBF2F302FB1313002B79D1B1FB7B
:10555000F2F64089401E064018D129B1E06A38B100
:105560002046FFF7B3F907E0A06838B9002100E052
:10557000E1692046FFF70AFA00287ED001282FD0E3
:10558000411C58D0E061A16801B9A060207D0006EF
:105590000BD50498226A012340785946FFF70AFE8A
:1055A000C0BB207D00F07F002075E1690498FFF703
:1055B000A0F9A8B13044009004988189B5FBF1F1BD
:1055C000029141B3721841898A4201D9891B029123
:1055D00040784146029B009AFFF7ECFDD0B903E00A
:1055E00084F815A002209BE7216A0098081A029906
:1055F00088420AD204998A8900FB0281584601F048
:1056000057F8207D00F07F00207504988689029865
:1056100046432FE00FE0FFE7226A00998A420ED04E
:10562000E268A16991420AD2407801235946009A62
:10563000FFF7A6FD18B16775012071E701E000983A
:1056400020620498A1698089B1FBF0F200FB12127C
:10565000861AAE4200D92E46B1FBF0F200FB1210C2
:10566000204432464146303001F022F8207D40F09F
:1056700080002075B044A06900E00FE03044A061D4
:10568000E168884200D80846E060D9F80000811936
:10569000AD1BC9F80010002D7FF450AF207D40F005
:1056A0004000207500203BE7802804D30B4A51B10D
:1056B000FF2801D90020704702EB4000A0F5805080
:1056C000B0F8000F704732F81130834203D0491C04
:1056D00089B28029F7D38031C8B270475A6D00086B
:1056E00030B5B0F5805F01D21B4900E01B4931F8AD
:1056F000022B002A15D0904213D331F8024B230A13
:10570000E5B252FA84F4844221D9092B09D2DFE8A8
:1057100003F005090E11131517191B00801A31F833
:10572000100030BD811A01F00101401A00E010386C
:1057300080B230BD2038FBE73038F9E71A38F7E798
:105740000830F5E75038F3E7A0F5E350F0E7002B19
:10575000CDD101EB4501CAE75A6E00084C70000834
:105760002DE9FF41002790460E460F6000F02EFB0A
:10577000050003D50B2004B0BDE8F081984850F82F
:1057800025409CB13460207808F0FE0620B1607896
:10579000FFF704FDC1070BD02770E8B2B846607070
:1057A000FFF7CCFCC10708D00320E4E70C20E2E7B8
:1057B0000EB1400704D40020DDE71EB1400701D53B
:1057C0000A20D8E7607804F10C020221FFF7CAFC36
:1057D000F0BBA089A0F50071B1F5606F3FD8411E04
:1057E00008423CD1002631462046FEF7F1FF022850
:1057F00022D100254FEA0D0704EB051090F8FA11AD
:1058000000F5FB7019B1083000F0D5FB00E0002076
:1058100047F825006D1C042DEED3002557F82560B0
:1058200036B131462046FEF7D3FF022801D203E00D
:1058300003206D1C042DF1D3042810D0022878D247
:1058400004F1430000F0C2FBA189884271D100E05D
:1058500005E004F14E0000F0B9FB10B105E00120B5
:1058600089E704F15C0000F0A6FB206294F8485040
:10587000A570012D01D0022D5BD1454394F8450060
:105880006081E8B3411E084253D104F1490000F0A1
:105890009DFB2081A1894909B0FBF1F201FB1200B7
:1058A00070BB04F14B0000F091FB070004D104F140
:1058B000580000F080FB074604F1460000F086FB2C
:1058C000010036D0A08923894009B3FBF0F04A19C2
:1058D000024497422DD3B81A6789B0FBF7F078B12C
:1058E00003274FF6F57C604500D8022740F6F57C8B
:1058F000604500D801273244801C3144226300E017
:1059000017E0E061C4E90961032F14D08BB1294489
:10591000E162022F20D000F0010100EB400001EB1A
:105920005000A189401E0844B0FBF1F0216A884272
:1059300014D90D201FE704F1620000F047FB002896
:10594000F7D120890028F4D104F1640000F033FB82
:10595000E062E0698000E4E74000E2E74FF0FF30FA
:10596000A061606180202071032F2CD104F16800B8
:1059700000F02CFB012826D1711C204600F0DEFE31
:1059800008BB84F8048004F2362000F01FFBA0F569
:105990002A41553917D104F1380000F00CFB1149A8
:1059A000884210D104F5077000F005FB0E498842CB
:1059B00009D104F5087000F0FEFAA06104F5097041
:1059C00000F0F9FA606106482770001F0188491C41
:1059D0000180E180054820612046FEF767FFEAE686
:1059E000B400002052526141727241613C25002096
:1059F0007CB515A1164CD1E90001CDE900014FF6A7
:105A0000FF75258065806B4608220121A06801F0A2
:105A1000BBF8104800F01AF90E49012805D00878A3
:105A2000072802D04FF0FF307CBD8878CA7805EA9D
:105A300000200243228008794A7905EA00200243C7
:105A4000628091F901007CBD1B01000000A30000F1
:105A500000000020F800002010B54FF0FF340121B5
:105A60000220FDF783F816A0FDF76EF800F0CEF8DF
:105A70000028FBD1012000F029FA28B101210220E1
:105A8000FDF774F813A00EE04FF47A70FBF7FAFB01
:105A9000FFF7AEFF00284FF001014FF0020006D0E3
:105AA000FDF764F80FA0FDF74FF8204610BDFDF795
:105AB0005DF811A0FDF748F81448007840B210BD19
:105AC00070757420796F752066696E676572202025
:105AD000000000006C6F692074616F206B79747531
